{
  "_format": "hh-sol-artifact-1",
  "contractName": "Synthx",
  "sourceName": "contracts/Synthx.sol",
  "abi": [
    {
      "inputs": [],
      "stateMutability": "nonpayable",
      "type": "constructor"
    },
    {
      "anonymous": false,
      "inputs": [
        {
          "indexed": true,
          "internalType": "address",
          "name": "user",
          "type": "address"
        },
        {
          "indexed": false,
          "internalType": "uint256",
          "name": "amount",
          "type": "uint256"
        }
      ],
      "name": "CollateralDeposited",
      "type": "event"
    },
    {
      "anonymous": false,
      "inputs": [
        {
          "indexed": false,
          "internalType": "string",
          "name": "assetSymbol",
          "type": "string"
        },
        {
          "indexed": false,
          "internalType": "uint256",
          "name": "newPrice",
          "type": "uint256"
        }
      ],
      "name": "PriceUpdated",
      "type": "event"
    },
    {
      "anonymous": false,
      "inputs": [
        {
          "indexed": true,
          "internalType": "address",
          "name": "provider",
          "type": "address"
        },
        {
          "indexed": false,
          "internalType": "uint256",
          "name": "amount",
          "type": "uint256"
        },
        {
          "indexed": false,
          "internalType": "uint256",
          "name": "sharesMinted",
          "type": "uint256"
        }
      ],
      "name": "ReserveProvided",
      "type": "event"
    },
    {
      "anonymous": false,
      "inputs": [
        {
          "indexed": true,
          "internalType": "address",
          "name": "provider",
          "type": "address"
        },
        {
          "indexed": false,
          "internalType": "uint256",
          "name": "amount",
          "type": "uint256"
        },
        {
          "indexed": false,
          "internalType": "uint256",
          "name": "sharesBurned",
          "type": "uint256"
        }
      ],
      "name": "ReserveWithdrawn",
      "type": "event"
    },
    {
      "anonymous": false,
      "inputs": [
        {
          "indexed": true,
          "internalType": "address",
          "name": "user",
          "type": "address"
        },
        {
          "indexed": false,
          "internalType": "string",
          "name": "assetSymbol",
          "type": "string"
        },
        {
          "indexed": false,
          "internalType": "uint256",
          "name": "amountBurned",
          "type": "uint256"
        },
        {
          "indexed": false,
          "internalType": "uint256",
          "name": "collateralUnlocked",
          "type": "uint256"
        }
      ],
      "name": "SynthBurned",
      "type": "event"
    },
    {
      "anonymous": false,
      "inputs": [
        {
          "indexed": true,
          "internalType": "address",
          "name": "user",
          "type": "address"
        },
        {
          "indexed": false,
          "internalType": "string",
          "name": "assetSymbol",
          "type": "string"
        },
        {
          "indexed": false,
          "internalType": "address",
          "name": "tokenAddress",
          "type": "address"
        },
        {
          "indexed": false,
          "internalType": "uint256",
          "name": "amountMinted",
          "type": "uint256"
        },
        {
          "indexed": false,
          "internalType": "uint256",
          "name": "collateralLocked",
          "type": "uint256"
        }
      ],
      "name": "SynthMinted",
      "type": "event"
    },
    {
      "anonymous": false,
      "inputs": [
        {
          "indexed": false,
          "internalType": "string",
          "name": "assetSymbol",
          "type": "string"
        },
        {
          "indexed": false,
          "internalType": "address",
          "name": "tokenAddress",
          "type": "address"
        }
      ],
      "name": "SynthTokenCreated",
      "type": "event"
    },
    {
      "inputs": [
        {
          "internalType": "string",
          "name": "",
          "type": "string"
        }
      ],
      "name": "assetPrices",
      "outputs": [
        {
          "internalType": "uint256",
          "name": "",
          "type": "uint256"
        }
      ],
      "stateMutability": "view",
      "type": "function"
    },
    {
      "inputs": [
        {
          "internalType": "string",
          "name": "assetSymbol",
          "type": "string"
        },
        {
          "internalType": "uint256",
          "name": "synthAmountToBurn",
          "type": "uint256"
        }
      ],
      "name": "burnSynth",
      "outputs": [],
      "stateMutability": "nonpayable",
      "type": "function"
    },
    {
      "inputs": [
        {
          "internalType": "address",
          "name": "",
          "type": "address"
        }
      ],
      "name": "collateralBalances",
      "outputs": [
        {
          "internalType": "uint256",
          "name": "",
          "type": "uint256"
        }
      ],
      "stateMutability": "view",
      "type": "function"
    },
    {
      "inputs": [],
      "name": "depositCollateral",
      "outputs": [],
      "stateMutability": "payable",
      "type": "function"
    },
    {
      "inputs": [],
      "name": "getAvailableReserveLiquidity",
      "outputs": [
        {
          "internalType": "uint256",
          "name": "",
          "type": "uint256"
        }
      ],
      "stateMutability": "view",
      "type": "function"
    },
    {
      "inputs": [],
      "name": "getLiquidity",
      "outputs": [
        {
          "internalType": "uint256",
          "name": "",
          "type": "uint256"
        }
      ],
      "stateMutability": "view",
      "type": "function"
    },
    {
      "inputs": [],
      "name": "getRequiredLiquidity",
      "outputs": [
        {
          "internalType": "uint256",
          "name": "",
          "type": "uint256"
        }
      ],
      "stateMutability": "view",
      "type": "function"
    },
    {
      "inputs": [
        {
          "internalType": "string",
          "name": "assetSymbol",
          "type": "string"
        },
        {
          "internalType": "uint256",
          "name": "flrAmountToLock",
          "type": "uint256"
        }
      ],
      "name": "mintSynth",
      "outputs": [],
      "stateMutability": "payable",
      "type": "function"
    },
    {
      "inputs": [],
      "name": "owner",
      "outputs": [
        {
          "internalType": "address",
          "name": "",
          "type": "address"
        }
      ],
      "stateMutability": "view",
      "type": "function"
    },
    {
      "inputs": [
        {
          "internalType": "uint256",
          "name": "shareAmount",
          "type": "uint256"
        }
      ],
      "name": "previewReserveWithdrawal",
      "outputs": [
        {
          "internalType": "uint256",
          "name": "",
          "type": "uint256"
        }
      ],
      "stateMutability": "view",
      "type": "function"
    },
    {
      "inputs": [],
      "name": "provideReserve",
      "outputs": [],
      "stateMutability": "payable",
      "type": "function"
    },
    {
      "inputs": [
        {
          "internalType": "address",
          "name": "",
          "type": "address"
        }
      ],
      "name": "reserveShares",
      "outputs": [
        {
          "internalType": "uint256",
          "name": "",
          "type": "uint256"
        }
      ],
      "stateMutability": "view",
      "type": "function"
    },
    {
      "inputs": [
        {
          "internalType": "string",
          "name": "",
          "type": "string"
        }
      ],
      "name": "synthTokens",
      "outputs": [
        {
          "internalType": "address",
          "name": "",
          "type": "address"
        }
      ],
      "stateMutability": "view",
      "type": "function"
    },
    {
      "inputs": [],
      "name": "totalReserveShares",
      "outputs": [
        {
          "internalType": "uint256",
          "name": "",
          "type": "uint256"
        }
      ],
      "stateMutability": "view",
      "type": "function"
    },
    {
      "inputs": [
        {
          "internalType": "string",
          "name": "assetSymbol",
          "type": "string"
        },
        {
          "internalType": "uint256",
          "name": "newPrice",
          "type": "uint256"
        }
      ],
      "name": "updatePrice",
      "outputs": [],
      "stateMutability": "nonpayable",
      "type": "function"
    },
    {
      "inputs": [
        {
          "internalType": "uint256",
          "name": "amount",
          "type": "uint256"
        }
      ],
      "name": "withdrawCollateral",
      "outputs": [],
      "stateMutability": "nonpayable",
      "type": "function"
    },
    {
      "inputs": [
        {
          "internalType": "uint256",
          "name": "shareAmount",
          "type": "uint256"
        }
      ],
      "name": "withdrawReserve",
      "outputs": [],
      "stateMutability": "nonpayable",
      "type": "function"
    },
    {
      "stateMutability": "payable",
      "type": "receive"
    }
  ],
  "bytecode": "0x60806040523480156200001157600080fd5b50336000806101000a81548173ffffffffffffffffffffffffffffffffffffffff021916908373ffffffffffffffffffffffffffffffffffffffff160217905550670cccce6f097d300060046040516200006b90620008c2565b908152602001604051809103902081905550670ae86ed5e97500006004604051620000969062000929565b908152602001604051809103902081905550680888a42ff3fdfe00006004604051620000c29062000990565b908152602001604051809103902081905550670c81b4a00f9500006004604051620000ed90620009f7565b9081526020016040518091039020819055506715181ff25a9800006004604051620001189062000a5e565b9081526020016040518091039020819055506712e3f430244300006004604051620001439062000ac5565b90815260200160405180910390208190555067169eec5d27e3000060046040516200016e9062000b2c565b9081526020016040518091039020819055506764abbd84212940006004604051620001999062000b93565b9081526020016040518091039020819055506200025d6040518060400160405280600481526020017f73657572000000000000000000000000000000000000000000000000000000008152506040518060400160405280600e81526020017f53796e746865746963204575726f0000000000000000000000000000000000008152506040518060400160405280600481526020017f73455552000000000000000000000000000000000000000000000000000000008152506200074160201b60201c565b6200030f6040518060400160405280600481526020017f73676270000000000000000000000000000000000000000000000000000000008152506040518060400160405280601781526020017f53796e746865746963204272697469736820506f756e640000000000000000008152506040518060400160405280600481526020017f73474250000000000000000000000000000000000000000000000000000000008152506200074160201b60201c565b620003c16040518060400160405280600481526020017f736a7079000000000000000000000000000000000000000000000000000000008152506040518060400160405280601681526020017f53796e746865746963204a6170616e6573652059656e000000000000000000008152506040518060400160405280600481526020017f734a5059000000000000000000000000000000000000000000000000000000008152506200074160201b60201c565b620004736040518060400160405280600481526020017f73636866000000000000000000000000000000000000000000000000000000008152506040518060400160405280601581526020017f53796e746865746963205377697373204672616e6300000000000000000000008152506040518060400160405280600481526020017f73434846000000000000000000000000000000000000000000000000000000008152506200074160201b60201c565b620005256040518060400160405280600481526020017f73617564000000000000000000000000000000000000000000000000000000008152506040518060400160405280601b81526020017f53796e746865746963204175737472616c69616e20446f6c6c617200000000008152506040518060400160405280600481526020017f73415544000000000000000000000000000000000000000000000000000000008152506200074160201b60201c565b620005d76040518060400160405280600481526020017f73636164000000000000000000000000000000000000000000000000000000008152506040518060400160405280601981526020017f53796e7468657469632043616e616469616e20446f6c6c6172000000000000008152506040518060400160405280600481526020017f73434144000000000000000000000000000000000000000000000000000000008152506200074160201b60201c565b620006896040518060400160405280600481526020017f736e7a64000000000000000000000000000000000000000000000000000000008152506040518060400160405280601c81526020017f53796e746865746963204e6577205a65616c616e6420446f6c6c6172000000008152506040518060400160405280600481526020017f734e5a44000000000000000000000000000000000000000000000000000000008152506200074160201b60201c565b6200073b6040518060400160405280600481526020017f73636e79000000000000000000000000000000000000000000000000000000008152506040518060400160405280601681526020017f53796e746865746963204368696e657365205975616e000000000000000000008152506040518060400160405280600481526020017f73434e59000000000000000000000000000000000000000000000000000000008152506200074160201b60201c565b620010ae565b6000828230604051620007549062000859565b620007629392919062000c89565b604051809103906000f0801580156200077f573d6000803e3d6000fd5b5090508060058560405162000795919062000d0b565b908152602001604051809103902060006101000a81548173ffffffffffffffffffffffffffffffffffffffff021916908373ffffffffffffffffffffffffffffffffffffffff16021790555060068490806001815401808255809150506001900390600052602060002001600090919091909150908162000817919062000f93565b507f45da307ef7a3d21412eb0e237ae322546dc888b89beebdd49c471aa6bb5e5db684826040516200084b9291906200107a565b60405180910390a150505050565b611a22806200343b83390190565b600081905092915050565b7f7365757200000000000000000000000000000000000000000000000000000000600082015250565b6000620008aa60048362000867565b9150620008b78262000872565b600482019050919050565b6000620008cf826200089b565b9150819050919050565b7f7367627000000000000000000000000000000000000000000000000000000000600082015250565b60006200091160048362000867565b91506200091e82620008d9565b600482019050919050565b6000620009368262000902565b9150819050919050565b7f736a707900000000000000000000000000000000000000000000000000000000600082015250565b60006200097860048362000867565b9150620009858262000940565b600482019050919050565b60006200099d8262000969565b9150819050919050565b7f7363686600000000000000000000000000000000000000000000000000000000600082015250565b6000620009df60048362000867565b9150620009ec82620009a7565b600482019050919050565b600062000a0482620009d0565b9150819050919050565b7f7361756400000000000000000000000000000000000000000000000000000000600082015250565b600062000a4660048362000867565b915062000a538262000a0e565b600482019050919050565b600062000a6b8262000a37565b9150819050919050565b7f7363616400000000000000000000000000000000000000000000000000000000600082015250565b600062000aad60048362000867565b915062000aba8262000a75565b600482019050919050565b600062000ad28262000a9e565b9150819050919050565b7f736e7a6400000000000000000000000000000000000000000000000000000000600082015250565b600062000b1460048362000867565b915062000b218262000adc565b600482019050919050565b600062000b398262000b05565b9150819050919050565b7f73636e7900000000000000000000000000000000000000000000000000000000600082015250565b600062000b7b60048362000867565b915062000b888262000b43565b600482019050919050565b600062000ba08262000b6c565b9150819050919050565b600081519050919050565b600082825260208201905092915050565b60005b8381101562000be657808201518184015260208101905062000bc9565b60008484015250505050565b6000601f19601f8301169050919050565b600062000c108262000baa565b62000c1c818562000bb5565b935062000c2e81856020860162000bc6565b62000c398162000bf2565b840191505092915050565b600073ffffffffffffffffffffffffffffffffffffffff82169050919050565b600062000c718262000c44565b9050919050565b62000c838162000c64565b82525050565b6000606082019050818103600083015262000ca5818662000c03565b9050818103602083015262000cbb818562000c03565b905062000ccc604083018462000c78565b949350505050565b600062000ce18262000baa565b62000ced818562000867565b935062000cff81856020860162000bc6565b80840191505092915050565b600062000d19828462000cd4565b915081905092915050565b7f4e487b7100000000000000000000000000000000000000000000000000000000600052604160045260246000fd5b7f4e487b7100000000000000000000000000000000000000000000000000000000600052602260045260246000fd5b6000600282049050600182168062000d9b57607f821691505b60208210810362000db15762000db062000d53565b5b50919050565b60008190508160005260206000209050919050565b60006020601f8301049050919050565b600082821b905092915050565b60006008830262000e1b7fffffffffffffffffffffffffffffffffffffffffffffffffffffffffffffffff8262000ddc565b62000e27868362000ddc565b95508019841693508086168417925050509392505050565b6000819050919050565b6000819050919050565b600062000e7462000e6e62000e688462000e3f565b62000e49565b62000e3f565b9050919050565b6000819050919050565b62000e908362000e53565b62000ea862000e9f8262000e7b565b84845462000de9565b825550505050565b600090565b62000ebf62000eb0565b62000ecc81848462000e85565b505050565b5b8181101562000ef45762000ee860008262000eb5565b60018101905062000ed2565b5050565b601f82111562000f435762000f0d8162000db7565b62000f188462000dcc565b8101602085101562000f28578190505b62000f4062000f378562000dcc565b83018262000ed1565b50505b505050565b600082821c905092915050565b600062000f686000198460080262000f48565b1980831691505092915050565b600062000f83838362000f55565b9150826002028217905092915050565b62000f9e8262000baa565b67ffffffffffffffff81111562000fba5762000fb962000d24565b5b62000fc6825462000d82565b62000fd382828562000ef8565b600060209050601f8311600181146200100b576000841562000ff6578287015190505b62001002858262000f75565b86555062001072565b601f1984166200101b8662000db7565b60005b8281101562001045578489015182556001820191506020850194506020810190506200101e565b8683101562001065578489015162001061601f89168262000f55565b8355505b6001600288020188555050505b505050505050565b6000604082019050818103600083015262001096818562000c03565b9050620010a7602083018462000c78565b9392505050565b61237d80620010be6000396000f3fe6080604052600436106101025760003560e01c806373636aab11610095578063b2ee787811610064578063b2ee7878146102f1578063cb91e7bb1461031c578063dfa54c8514610359578063e04becd914610382578063f9172888146103ad57610109565b806373636aab146102545780638a3387c81461025e5780638da5cb5b1461029b5780639e3ebade146102c657610109565b80634a432a46116100d15780634a432a46146101bb5780636112fe2e146101e457806362ab2d051461020d5780636f7581401461024a57610109565b80630910a5101461010e57806329bc969d146101395780632a43d645146101765780633e696f381461019257610109565b3661010957005b600080fd5b34801561011a57600080fd5b506101236103ea565b60405161013091906115c1565b60405180910390f35b34801561014557600080fd5b50610160600480360381019061015b919061164e565b6103f2565b60405161016d91906115c1565b60405180910390f35b610190600480360381019061018b91906117ed565b61040a565b005b34801561019e57600080fd5b506101b960048036038101906101b49190611849565b610720565b005b3480156101c757600080fd5b506101e260048036038101906101dd91906117ed565b610a06565b005b3480156101f057600080fd5b5061020b60048036038101906102069190611849565b610af4565b005b34801561021957600080fd5b50610234600480360381019061022f919061164e565b610c7c565b60405161024191906115c1565b60405180910390f35b610252610c94565b005b61025c610d7d565b005b34801561026a57600080fd5b5061028560048036038101906102809190611849565b610ed6565b60405161029291906115c1565b60405180910390f35b3480156102a757600080fd5b506102b0610f25565b6040516102bd9190611885565b60405180910390f35b3480156102d257600080fd5b506102db610f49565b6040516102e891906115c1565b60405180910390f35b3480156102fd57600080fd5b50610306610f59565b60405161031391906115c1565b60405180910390f35b34801561032857600080fd5b50610343600480360381019061033e91906118a0565b610f5f565b6040516103509190611885565b60405180910390f35b34801561036557600080fd5b50610380600480360381019061037b91906117ed565b610fa8565b005b34801561038e57600080fd5b5061039761133e565b6040516103a491906115c1565b60405180910390f35b3480156103b957600080fd5b506103d460048036038101906103cf91906118a0565b61134d565b6040516103e191906115c1565b60405180910390f35b600047905090565b60016020528060005260406000206000915090505481565b6000811161044d576040517f08c379a000000000000000000000000000000000000000000000000000000000815260040161044490611946565b60405180910390fd5b80341461048f576040517f08c379a0000000000000000000000000000000000000000000000000000000008152600401610486906119b2565b60405180910390fd5b60006004836040516104a19190611a43565b908152602001604051809103902054116104f0576040517f08c379a00000000000000000000000000000000000000000000000000000000081526004016104e790611aa6565b60405180910390fd5b600073ffffffffffffffffffffffffffffffffffffffff166005836040516105189190611a43565b908152602001604051809103902060009054906101000a900473ffffffffffffffffffffffffffffffffffffffff1673ffffffffffffffffffffffffffffffffffffffff160361059d576040517f08c379a000000000000000000000000000000000000000000000000000000000815260040161059490611b12565b60405180910390fd5b6000670de0b6b3a76400006004846040516105b89190611a43565b908152602001604051809103902054836105d29190611b61565b6105dc9190611bd2565b90506005836040516105ee9190611a43565b908152602001604051809103902060009054906101000a900473ffffffffffffffffffffffffffffffffffffffff1673ffffffffffffffffffffffffffffffffffffffff166340c10f1933836040518363ffffffff1660e01b8152600401610657929190611c03565b600060405180830381600087803b15801561067157600080fd5b505af1158015610685573d6000803e3d6000fd5b505050503373ffffffffffffffffffffffffffffffffffffffff167f403b08d7050be447a9968a8fa3c9e6c3cf1528cb092773d3a38dd857829e6281846005866040516106d29190611a43565b908152602001604051809103902060009054906101000a900473ffffffffffffffffffffffffffffffffffffffff1684866040516107139493929190611c65565b60405180910390a2505050565b60008111610763576040517f08c379a000000000000000000000000000000000000000000000000000000000815260040161075a90611cfd565b60405180910390fd5b80600260003373ffffffffffffffffffffffffffffffffffffffff1673ffffffffffffffffffffffffffffffffffffffff1681526020019081526020016000205410156107e5576040517f08c379a00000000000000000000000000000000000000000000000000000000081526004016107dc90611d69565b60405180910390fd5b60006107f04761137b565b905060008111610835576040517f08c379a000000000000000000000000000000000000000000000000000000000815260040161082c90611dd5565b60405180910390fd5b600060035482846108469190611b61565b6108509190611bd2565b905060008111610895576040517f08c379a000000000000000000000000000000000000000000000000000000000815260040161088c90611e41565b60405180910390fd5b82600260003373ffffffffffffffffffffffffffffffffffffffff1673ffffffffffffffffffffffffffffffffffffffff16815260200190815260200160002060008282546108e49190611e61565b9250508190555082600360008282546108fd9190611e61565b9250508190555060003373ffffffffffffffffffffffffffffffffffffffff168260405161092a90611ec6565b60006040518083038185875af1925050503d8060008114610967576040519150601f19603f3d011682016040523d82523d6000602084013e61096c565b606091505b50509050806109b0576040517f08c379a00000000000000000000000000000000000000000000000000000000081526004016109a790611f27565b60405180910390fd5b3373ffffffffffffffffffffffffffffffffffffffff167ff7aeb382a1e87f84aa69637a22868c2e12be1261273f04cdf40a262a8b89003183866040516109f8929190611f47565b60405180910390a250505050565b60008054906101000a900473ffffffffffffffffffffffffffffffffffffffff1673ffffffffffffffffffffffffffffffffffffffff163373ffffffffffffffffffffffffffffffffffffffff1614610a94576040517f08c379a0000000000000000000000000000000000000000000000000000000008152600401610a8b90611fbc565b60405180910390fd5b80600483604051610aa59190611a43565b9081526020016040518091039020819055507f159e83f4712ba2552e68be9d848e49bf6dd35c24f19564ffd523b6549450a2f48282604051610ae8929190611fdc565b60405180910390a15050565b80600160003373ffffffffffffffffffffffffffffffffffffffff1673ffffffffffffffffffffffffffffffffffffffff168152602001908152602001600020541015610b76576040517f08c379a0000000000000000000000000000000000000000000000000000000008152600401610b6d90612058565b60405180910390fd5b80600160003373ffffffffffffffffffffffffffffffffffffffff1673ffffffffffffffffffffffffffffffffffffffff1681526020019081526020016000206000828254610bc59190611e61565b9250508190555060003373ffffffffffffffffffffffffffffffffffffffff1682604051610bf290611ec6565b60006040518083038185875af1925050503d8060008114610c2f576040519150601f19603f3d011682016040523d82523d6000602084013e610c34565b606091505b5050905080610c78576040517f08c379a0000000000000000000000000000000000000000000000000000000008152600401610c6f90611f27565b60405180910390fd5b5050565b60026020528060005260406000206000915090505481565b60003411610cd7576040517f08c379a0000000000000000000000000000000000000000000000000000000008152600401610cce906120c4565b60405180910390fd5b34600160003373ffffffffffffffffffffffffffffffffffffffff1673ffffffffffffffffffffffffffffffffffffffff1681526020019081526020016000206000828254610d2691906120e4565b925050819055503373ffffffffffffffffffffffffffffffffffffffff167fd7243f6f8212d5188fd054141cf6ea89cfc0d91facb8c3afe2f88a135848014234604051610d7391906115c1565b60405180910390a2565b60003411610dc0576040517f08c379a0000000000000000000000000000000000000000000000000000000008152600401610db790612164565b60405180910390fd5b6000610dd63447610dd19190611e61565b61137b565b90506000806003541480610dea5750600082145b15610df757349050610e13565b8160035434610e069190611b61565b610e109190611bd2565b90505b80600260003373ffffffffffffffffffffffffffffffffffffffff1673ffffffffffffffffffffffffffffffffffffffff1681526020019081526020016000206000828254610e6291906120e4565b925050819055508060036000828254610e7b91906120e4565b925050819055503373ffffffffffffffffffffffffffffffffffffffff167f24267330ae0729c628204cf4a819dcc03045652852fbae54568a4da19c3317143483604051610eca929190611f47565b60405180910390a25050565b600080821480610ee857506000600354145b15610ef65760009050610f20565b6000610f014761137b565b90506003548184610f129190611b61565b610f1c9190611bd2565b9150505b919050565b60008054906101000a900473ffffffffffffffffffffffffffffffffffffffff1681565b6000610f544761137b565b905090565b60035481565b6005818051602081018201805184825260208301602085012081835280955050505050506000915054906101000a900473ffffffffffffffffffffffffffffffffffffffff1681565b600073ffffffffffffffffffffffffffffffffffffffff16600583604051610fd09190611a43565b908152602001604051809103902060009054906101000a900473ffffffffffffffffffffffffffffffffffffffff1673ffffffffffffffffffffffffffffffffffffffff1603611055576040517f08c379a000000000000000000000000000000000000000000000000000000000815260040161104c90611b12565b60405180910390fd5b60006004836040516110679190611a43565b908152602001604051809103902054116110b6576040517f08c379a00000000000000000000000000000000000000000000000000000000081526004016110ad90611aa6565b60405180910390fd5b600081116110f9576040517f08c379a00000000000000000000000000000000000000000000000000000000081526004016110f090611946565b60405180910390fd5b600060048360405161110b9190611a43565b908152602001604051809103902054670de0b6b3a76400008361112e9190611b61565b6111389190611bd2565b905060058360405161114a9190611a43565b908152602001604051809103902060009054906101000a900473ffffffffffffffffffffffffffffffffffffffff1673ffffffffffffffffffffffffffffffffffffffff166379cc679033846040518363ffffffff1660e01b81526004016111b3929190611c03565b600060405180830381600087803b1580156111cd57600080fd5b505af11580156111e1573d6000803e3d6000fd5b505050506111ed6113ae565b816111f891906120e4565b47101561123a576040517f08c379a0000000000000000000000000000000000000000000000000000000008152600401611231906121d0565b60405180910390fd5b60003373ffffffffffffffffffffffffffffffffffffffff168260405161126090611ec6565b60006040518083038185875af1925050503d806000811461129d576040519150601f19603f3d011682016040523d82523d6000602084013e6112a2565b606091505b50509050806112e6576040517f08c379a00000000000000000000000000000000000000000000000000000000081526004016112dd90611f27565b60405180910390fd5b3373ffffffffffffffffffffffffffffffffffffffff167fe86a5480d8ef2391f304c9742569e1c72228771c1e35ea5c92c7ae0cfbab5f9a858585604051611330939291906121f0565b60405180910390a250505050565b60006113486113ae565b905090565b6004818051602081018201805184825260208301602085012081835280955050505050506000915090505481565b6000806113866113ae565b90508083116113995760009150506113a9565b80836113a59190611e61565b9150505b919050565b600080600090505b6006805490508110156115a4576000600682815481106113d9576113d861222e565b5b9060005260206000200180546113ee9061228c565b80601f016020809104026020016040519081016040528092919081815260200182805461141a9061228c565b80156114675780601f1061143c57610100808354040283529160200191611467565b820191906000526020600020905b81548152906001019060200180831161144a57829003601f168201915b5050505050905060006004826040516114809190611a43565b9081526020016040518091039020549050600081036114a0575050611591565b60006005836040516114b29190611a43565b908152602001604051809103902060009054906101000a900473ffffffffffffffffffffffffffffffffffffffff1673ffffffffffffffffffffffffffffffffffffffff166318160ddd6040518163ffffffff1660e01b8152600401602060405180830381865afa15801561152b573d6000803e3d6000fd5b505050506040513d601f19601f8201168201806040525081019061154f91906122d2565b90506000810361156157505050611591565b81670de0b6b3a7640000826115769190611b61565b6115809190611bd2565b8561158b91906120e4565b94505050505b808061159c906122ff565b9150506113b6565b5090565b6000819050919050565b6115bb816115a8565b82525050565b60006020820190506115d660008301846115b2565b92915050565b6000604051905090565b600080fd5b600080fd5b600073ffffffffffffffffffffffffffffffffffffffff82169050919050565b600061161b826115f0565b9050919050565b61162b81611610565b811461163657600080fd5b50565b60008135905061164881611622565b92915050565b600060208284031215611664576116636115e6565b5b600061167284828501611639565b91505092915050565b600080fd5b600080fd5b6000601f19601f8301169050919050565b7f4e487b7100000000000000000000000000000000000000000000000000000000600052604160045260246000fd5b6116ce82611685565b810181811067ffffffffffffffff821117156116ed576116ec611696565b5b80604052505050565b60006117006115dc565b905061170c82826116c5565b919050565b600067ffffffffffffffff82111561172c5761172b611696565b5b61173582611685565b9050602081019050919050565b82818337600083830152505050565b600061176461175f84611711565b6116f6565b9050828152602081018484840111156117805761177f611680565b5b61178b848285611742565b509392505050565b600082601f8301126117a8576117a761167b565b5b81356117b8848260208601611751565b91505092915050565b6117ca816115a8565b81146117d557600080fd5b50565b6000813590506117e7816117c1565b92915050565b60008060408385031215611804576118036115e6565b5b600083013567ffffffffffffffff811115611822576118216115eb565b5b61182e85828601611793565b925050602061183f858286016117d8565b9150509250929050565b60006020828403121561185f5761185e6115e6565b5b600061186d848285016117d8565b91505092915050565b61187f81611610565b82525050565b600060208201905061189a6000830184611876565b92915050565b6000602082840312156118b6576118b56115e6565b5b600082013567ffffffffffffffff8111156118d4576118d36115eb565b5b6118e084828501611793565b91505092915050565b600082825260208201905092915050565b7f416d6f756e74206d7573742062652067726561746572207468616e2030000000600082015250565b6000611930601d836118e9565b915061193b826118fa565b602082019050919050565b6000602082019050818103600083015261195f81611923565b9050919050565b7f53656e6420657861637420464c5220636f6c6c61746572616c00000000000000600082015250565b600061199c6019836118e9565b91506119a782611966565b602082019050919050565b600060208201905081810360008301526119cb8161198f565b9050919050565b600081519050919050565b600081905092915050565b60005b83811015611a065780820151818401526020810190506119eb565b60008484015250505050565b6000611a1d826119d2565b611a2781856119dd565b9350611a378185602086016119e8565b80840191505092915050565b6000611a4f8284611a12565b915081905092915050565b7f4173736574207072696365206e6f7420617661696c61626c6500000000000000600082015250565b6000611a906019836118e9565b9150611a9b82611a5a565b602082019050919050565b60006020820190508181036000830152611abf81611a83565b9050919050565b7f546f6b656e20636f6e7472616374206e6f7420666f756e640000000000000000600082015250565b6000611afc6018836118e9565b9150611b0782611ac6565b602082019050919050565b60006020820190508181036000830152611b2b81611aef565b9050919050565b7f4e487b7100000000000000000000000000000000000000000000000000000000600052601160045260246000fd5b6000611b6c826115a8565b9150611b77836115a8565b9250828202611b85816115a8565b91508282048414831517611b9c57611b9b611b32565b5b5092915050565b7f4e487b7100000000000000000000000000000000000000000000000000000000600052601260045260246000fd5b6000611bdd826115a8565b9150611be8836115a8565b925082611bf857611bf7611ba3565b5b828204905092915050565b6000604082019050611c186000830185611876565b611c2560208301846115b2565b9392505050565b6000611c37826119d2565b611c4181856118e9565b9350611c518185602086016119e8565b611c5a81611685565b840191505092915050565b60006080820190508181036000830152611c7f8187611c2c565b9050611c8e6020830186611876565b611c9b60408301856115b2565b611ca860608301846115b2565b95945050505050565b7f4d757374207769746864726177206d6f7265207468616e203000000000000000600082015250565b6000611ce76019836118e9565b9150611cf282611cb1565b602082019050919050565b60006020820190508181036000830152611d1681611cda565b9050919050565b7f496e73756666696369656e742072657365727665207368617265730000000000600082015250565b6000611d53601b836118e9565b9150611d5e82611d1d565b602082019050919050565b60006020820190508181036000830152611d8281611d46565b9050919050565b7f4e6f2072657365727665206c697175696469747920617661696c61626c650000600082015250565b6000611dbf601e836118e9565b9150611dca82611d89565b602082019050919050565b60006020820190508181036000830152611dee81611db2565b9050919050565b7f5769746864726177616c20616d6f756e74206973203000000000000000000000600082015250565b6000611e2b6016836118e9565b9150611e3682611df5565b602082019050919050565b60006020820190508181036000830152611e5a81611e1e565b9050919050565b6000611e6c826115a8565b9150611e77836115a8565b9250828203905081811115611e8f57611e8e611b32565b5b92915050565b600081905092915050565b50565b6000611eb0600083611e95565b9150611ebb82611ea0565b600082019050919050565b6000611ed182611ea3565b9150819050919050565b7f464c52207472616e73666572206661696c656400000000000000000000000000600082015250565b6000611f116013836118e9565b9150611f1c82611edb565b602082019050919050565b60006020820190508181036000830152611f4081611f04565b9050919050565b6000604082019050611f5c60008301856115b2565b611f6960208301846115b2565b9392505050565b7f4f6e6c79206f776e657200000000000000000000000000000000000000000000600082015250565b6000611fa6600a836118e9565b9150611fb182611f70565b602082019050919050565b60006020820190508181036000830152611fd581611f99565b9050919050565b60006040820190508181036000830152611ff68185611c2c565b905061200560208301846115b2565b9392505050565b7f496e73756666696369656e7420636f6c6c61746572616c2062616c616e636500600082015250565b6000612042601f836118e9565b915061204d8261200c565b602082019050919050565b6000602082019050818103600083015261207181612035565b9050919050565b7f4d757374206465706f736974206d6f7265207468616e20300000000000000000600082015250565b60006120ae6018836118e9565b91506120b982612078565b602082019050919050565b600060208201905081810360008301526120dd816120a1565b9050919050565b60006120ef826115a8565b91506120fa836115a8565b925082820190508082111561211257612111611b32565b5b92915050565b7f4d7573742070726f76696465206d6f7265207468616e20300000000000000000600082015250565b600061214e6018836118e9565b915061215982612118565b602082019050919050565b6000602082019050818103600083015261217d81612141565b9050919050565b7f496e73756666696369656e7420464c52206c6971756964697479000000000000600082015250565b60006121ba601a836118e9565b91506121c582612184565b602082019050919050565b600060208201905081810360008301526121e9816121ad565b9050919050565b6000606082019050818103600083015261220a8186611c2c565b905061221960208301856115b2565b61222660408301846115b2565b949350505050565b7f4e487b7100000000000000000000000000000000000000000000000000000000600052603260045260246000fd5b7f4e487b7100000000000000000000000000000000000000000000000000000000600052602260045260246000fd5b600060028204905060018216806122a457607f821691505b6020821081036122b7576122b661225d565b5b50919050565b6000815190506122cc816117c1565b92915050565b6000602082840312156122e8576122e76115e6565b5b60006122f6848285016122bd565b91505092915050565b600061230a826115a8565b91507fffffffffffffffffffffffffffffffffffffffffffffffffffffffffffffffff820361233c5761233b611b32565b5b60018201905091905056fea26469706673582212208b0c3660321eec88e32d17811b9b5d2a68b828416f0e082e51721dfd995db1f164736f6c6343000814003360806040523480156200001157600080fd5b5060405162001a2238038062001a228339818101604052810190620000379190620003ae565b80838381600390816200004b919062000693565b5080600490816200005d919062000693565b505050600073ffffffffffffffffffffffffffffffffffffffff168173ffffffffffffffffffffffffffffffffffffffff1603620000d55760006040517f1e4fbdf7000000000000000000000000000000000000000000000000000000008152600401620000cc91906200078b565b60405180910390fd5b620000e681620000f060201b60201c565b50505050620007a8565b6000600560009054906101000a900473ffffffffffffffffffffffffffffffffffffffff16905081600560006101000a81548173ffffffffffffffffffffffffffffffffffffffff021916908373ffffffffffffffffffffffffffffffffffffffff1602179055508173ffffffffffffffffffffffffffffffffffffffff168173ffffffffffffffffffffffffffffffffffffffff167f8be0079c531659141344cd1fd0a4f28419497f9722a3daafe3b4186f6b6457e060405160405180910390a35050565b6000604051905090565b600080fd5b600080fd5b600080fd5b600080fd5b6000601f19601f8301169050919050565b7f4e487b7100000000000000000000000000000000000000000000000000000000600052604160045260246000fd5b6200021f82620001d4565b810181811067ffffffffffffffff82111715620002415762000240620001e5565b5b80604052505050565b600062000256620001b6565b905062000264828262000214565b919050565b600067ffffffffffffffff821115620002875762000286620001e5565b5b6200029282620001d4565b9050602081019050919050565b60005b83811015620002bf578082015181840152602081019050620002a2565b60008484015250505050565b6000620002e2620002dc8462000269565b6200024a565b905082815260208101848484011115620003015762000300620001cf565b5b6200030e8482856200029f565b509392505050565b600082601f8301126200032e576200032d620001ca565b5b815162000340848260208601620002cb565b91505092915050565b600073ffffffffffffffffffffffffffffffffffffffff82169050919050565b6000620003768262000349565b9050919050565b620003888162000369565b81146200039457600080fd5b50565b600081519050620003a8816200037d565b92915050565b600080600060608486031215620003ca57620003c9620001c0565b5b600084015167ffffffffffffffff811115620003eb57620003ea620001c5565b5b620003f98682870162000316565b935050602084015167ffffffffffffffff8111156200041d576200041c620001c5565b5b6200042b8682870162000316565b92505060406200043e8682870162000397565b9150509250925092565b600081519050919050565b7f4e487b7100000000000000000000000000000000000000000000000000000000600052602260045260246000fd5b600060028204905060018216806200049b57607f821691505b602082108103620004b157620004b062000453565b5b50919050565b60008190508160005260206000209050919050565b60006020601f8301049050919050565b600082821b905092915050565b6000600883026200051b7fffffffffffffffffffffffffffffffffffffffffffffffffffffffffffffffff82620004dc565b620005278683620004dc565b95508019841693508086168417925050509392505050565b6000819050919050565b6000819050919050565b6000620005746200056e62000568846200053f565b62000549565b6200053f565b9050919050565b6000819050919050565b620005908362000553565b620005a86200059f826200057b565b848454620004e9565b825550505050565b600090565b620005bf620005b0565b620005cc81848462000585565b505050565b5b81811015620005f457620005e8600082620005b5565b600181019050620005d2565b5050565b601f82111562000643576200060d81620004b7565b6200061884620004cc565b8101602085101562000628578190505b620006406200063785620004cc565b830182620005d1565b50505b505050565b600082821c905092915050565b6000620006686000198460080262000648565b1980831691505092915050565b600062000683838362000655565b9150826002028217905092915050565b6200069e8262000448565b67ffffffffffffffff811115620006ba57620006b9620001e5565b5b620006c6825462000482565b620006d3828285620005f8565b600060209050601f8311600181146200070b5760008415620006f6578287015190505b62000702858262000675565b86555062000772565b601f1984166200071b86620004b7565b60005b8281101562000745578489015182556001820191506020850194506020810190506200071e565b8683101562000765578489015162000761601f89168262000655565b8355505b6001600288020188555050505b505050505050565b620007858162000369565b82525050565b6000602082019050620007a260008301846200077a565b92915050565b61126a80620007b86000396000f3fe608060405234801561001057600080fd5b50600436106100ea5760003560e01c8063715018a61161008c57806395d89b411161006657806395d89b4114610239578063a9059cbb14610257578063dd62ed3e14610287578063f2fde38b146102b7576100ea565b8063715018a6146101f557806379cc6790146101ff5780638da5cb5b1461021b576100ea565b806323b872dd116100c857806323b872dd1461015b578063313ce5671461018b57806340c10f19146101a957806370a08231146101c5576100ea565b806306fdde03146100ef578063095ea7b31461010d57806318160ddd1461013d575b600080fd5b6100f76102d3565b6040516101049190610ebe565b60405180910390f35b61012760048036038101906101229190610f79565b610365565b6040516101349190610fd4565b60405180910390f35b610145610388565b6040516101529190610ffe565b60405180910390f35b61017560048036038101906101709190611019565b610392565b6040516101829190610fd4565b60405180910390f35b6101936103c1565b6040516101a09190611088565b60405180910390f35b6101c360048036038101906101be9190610f79565b6103ca565b005b6101df60048036038101906101da91906110a3565b6103e0565b6040516101ec9190610ffe565b60405180910390f35b6101fd610428565b005b61021960048036038101906102149190610f79565b61043c565b005b610223610452565b60405161023091906110df565b60405180910390f35b61024161047c565b60405161024e9190610ebe565b60405180910390f35b610271600480360381019061026c9190610f79565b61050e565b60405161027e9190610fd4565b60405180910390f35b6102a1600480360381019061029c91906110fa565b610531565b6040516102ae9190610ffe565b60405180910390f35b6102d160048036038101906102cc91906110a3565b6105b8565b005b6060600380546102e290611169565b80601f016020809104026020016040519081016040528092919081815260200182805461030e90611169565b801561035b5780601f106103305761010080835404028352916020019161035b565b820191906000526020600020905b81548152906001019060200180831161033e57829003601f168201915b5050505050905090565b60008061037061063e565b905061037d818585610646565b600191505092915050565b6000600254905090565b60008061039d61063e565b90506103aa858285610658565b6103b58585856106ed565b60019150509392505050565b60006012905090565b6103d26107e1565b6103dc8282610868565b5050565b60008060008373ffffffffffffffffffffffffffffffffffffffff1673ffffffffffffffffffffffffffffffffffffffff168152602001908152602001600020549050919050565b6104306107e1565b61043a60006108ea565b565b6104446107e1565b61044e82826109b0565b5050565b6000600560009054906101000a900473ffffffffffffffffffffffffffffffffffffffff16905090565b60606004805461048b90611169565b80601f01602080910402602001604051908101604052809291908181526020018280546104b790611169565b80156105045780601f106104d957610100808354040283529160200191610504565b820191906000526020600020905b8154815290600101906020018083116104e757829003601f168201915b5050505050905090565b60008061051961063e565b90506105268185856106ed565b600191505092915050565b6000600160008473ffffffffffffffffffffffffffffffffffffffff1673ffffffffffffffffffffffffffffffffffffffff16815260200190815260200160002060008373ffffffffffffffffffffffffffffffffffffffff1673ffffffffffffffffffffffffffffffffffffffff16815260200190815260200160002054905092915050565b6105c06107e1565b600073ffffffffffffffffffffffffffffffffffffffff168173ffffffffffffffffffffffffffffffffffffffff16036106325760006040517f1e4fbdf700000000000000000000000000000000000000000000000000000000815260040161062991906110df565b60405180910390fd5b61063b816108ea565b50565b600033905090565b6106538383836001610a32565b505050565b60006106648484610531565b90507fffffffffffffffffffffffffffffffffffffffffffffffffffffffffffffffff8110156106e757818110156106d7578281836040517ffb8f41b20000000000000000000000000000000000000000000000000000000081526004016106ce9392919061119a565b60405180910390fd5b6106e684848484036000610a32565b5b50505050565b600073ffffffffffffffffffffffffffffffffffffffff168373ffffffffffffffffffffffffffffffffffffffff160361075f5760006040517f96c6fd1e00000000000000000000000000000000000000000000000000000000815260040161075691906110df565b60405180910390fd5b600073ffffffffffffffffffffffffffffffffffffffff168273ffffffffffffffffffffffffffffffffffffffff16036107d15760006040517fec442f050000000000000000000000000000000000000000000000000000000081526004016107c891906110df565b60405180910390fd5b6107dc838383610c09565b505050565b6107e961063e565b73ffffffffffffffffffffffffffffffffffffffff16610807610452565b73ffffffffffffffffffffffffffffffffffffffff16146108665761082a61063e565b6040517f118cdaa700000000000000000000000000000000000000000000000000000000815260040161085d91906110df565b60405180910390fd5b565b600073ffffffffffffffffffffffffffffffffffffffff168273ffffffffffffffffffffffffffffffffffffffff16036108da5760006040517fec442f050000000000000000000000000000000000000000000000000000000081526004016108d191906110df565b60405180910390fd5b6108e660008383610c09565b5050565b6000600560009054906101000a900473ffffffffffffffffffffffffffffffffffffffff16905081600560006101000a81548173ffffffffffffffffffffffffffffffffffffffff021916908373ffffffffffffffffffffffffffffffffffffffff1602179055508173ffffffffffffffffffffffffffffffffffffffff168173ffffffffffffffffffffffffffffffffffffffff167f8be0079c531659141344cd1fd0a4f28419497f9722a3daafe3b4186f6b6457e060405160405180910390a35050565b600073ffffffffffffffffffffffffffffffffffffffff168273ffffffffffffffffffffffffffffffffffffffff1603610a225760006040517f96c6fd1e000000000000000000000000000000000000000000000000000000008152600401610a1991906110df565b60405180910390fd5b610a2e82600083610c09565b5050565b600073ffffffffffffffffffffffffffffffffffffffff168473ffffffffffffffffffffffffffffffffffffffff1603610aa45760006040517fe602df05000000000000000000000000000000000000000000000000000000008152600401610a9b91906110df565b60405180910390fd5b600073ffffffffffffffffffffffffffffffffffffffff168373ffffffffffffffffffffffffffffffffffffffff1603610b165760006040517f94280d62000000000000000000000000000000000000000000000000000000008152600401610b0d91906110df565b60405180910390fd5b81600160008673ffffffffffffffffffffffffffffffffffffffff1673ffffffffffffffffffffffffffffffffffffffff16815260200190815260200160002060008573ffffffffffffffffffffffffffffffffffffffff1673ffffffffffffffffffffffffffffffffffffffff168152602001908152602001600020819055508015610c03578273ffffffffffffffffffffffffffffffffffffffff168473ffffffffffffffffffffffffffffffffffffffff167f8c5be1e5ebec7d5bd14f71427d1e84f3dd0314c0f7b2291e5b200ac8c7c3b92584604051610bfa9190610ffe565b60405180910390a35b50505050565b600073ffffffffffffffffffffffffffffffffffffffff168373ffffffffffffffffffffffffffffffffffffffff1603610c5b578060026000828254610c4f9190611200565b92505081905550610d2e565b60008060008573ffffffffffffffffffffffffffffffffffffffff1673ffffffffffffffffffffffffffffffffffffffff16815260200190815260200160002054905081811015610ce7578381836040517fe450d38c000000000000000000000000000000000000000000000000000000008152600401610cde9392919061119a565b60405180910390fd5b8181036000808673ffffffffffffffffffffffffffffffffffffffff1673ffffffffffffffffffffffffffffffffffffffff16815260200190815260200160002081905550505b600073ffffffffffffffffffffffffffffffffffffffff168273ffffffffffffffffffffffffffffffffffffffff1603610d775780600260008282540392505081905550610dc4565b806000808473ffffffffffffffffffffffffffffffffffffffff1673ffffffffffffffffffffffffffffffffffffffff168152602001908152602001600020600082825401925050819055505b8173ffffffffffffffffffffffffffffffffffffffff168373ffffffffffffffffffffffffffffffffffffffff167fddf252ad1be2c89b69c2b068fc378daa952ba7f163c4a11628f55a4df523b3ef83604051610e219190610ffe565b60405180910390a3505050565b600081519050919050565b600082825260208201905092915050565b60005b83811015610e68578082015181840152602081019050610e4d565b60008484015250505050565b6000601f19601f8301169050919050565b6000610e9082610e2e565b610e9a8185610e39565b9350610eaa818560208601610e4a565b610eb381610e74565b840191505092915050565b60006020820190508181036000830152610ed88184610e85565b905092915050565b600080fd5b600073ffffffffffffffffffffffffffffffffffffffff82169050919050565b6000610f1082610ee5565b9050919050565b610f2081610f05565b8114610f2b57600080fd5b50565b600081359050610f3d81610f17565b92915050565b6000819050919050565b610f5681610f43565b8114610f6157600080fd5b50565b600081359050610f7381610f4d565b92915050565b60008060408385031215610f9057610f8f610ee0565b5b6000610f9e85828601610f2e565b9250506020610faf85828601610f64565b9150509250929050565b60008115159050919050565b610fce81610fb9565b82525050565b6000602082019050610fe96000830184610fc5565b92915050565b610ff881610f43565b82525050565b60006020820190506110136000830184610fef565b92915050565b60008060006060848603121561103257611031610ee0565b5b600061104086828701610f2e565b935050602061105186828701610f2e565b925050604061106286828701610f64565b9150509250925092565b600060ff82169050919050565b6110828161106c565b82525050565b600060208201905061109d6000830184611079565b92915050565b6000602082840312156110b9576110b8610ee0565b5b60006110c784828501610f2e565b91505092915050565b6110d981610f05565b82525050565b60006020820190506110f460008301846110d0565b92915050565b6000806040838503121561111157611110610ee0565b5b600061111f85828601610f2e565b925050602061113085828601610f2e565b9150509250929050565b7f4e487b7100000000000000000000000000000000000000000000000000000000600052602260045260246000fd5b6000600282049050600182168061118157607f821691505b6020821081036111945761119361113a565b5b50919050565b60006060820190506111af60008301866110d0565b6111bc6020830185610fef565b6111c96040830184610fef565b949350505050565b7f4e487b7100000000000000000000000000000000000000000000000000000000600052601160045260246000fd5b600061120b82610f43565b915061121683610f43565b925082820190508082111561122e5761122d6111d1565b5b9291505056fea26469706673582212208488adc061a315748d1c7b53cadfd63a67122ddcafd2ef37ecb316cd66abf74d64736f6c63430008140033",
  "linkReferences": {},
  "deployedLinkReferences": {}
}